{
  "contractName": "Coin",
  "abi": [
    {
      "anonymous": false,
      "inputs": [
        {
          "indexed": true,
          "internalType": "uint256",
          "name": "id",
          "type": "uint256"
        },
        {
          "indexed": true,
          "internalType": "uint256",
          "name": "date",
          "type": "uint256"
        },
        {
          "indexed": true,
          "internalType": "string",
          "name": "value",
          "type": "string"
        }
      ],
      "name": "MyEvent",
      "type": "event"
    },
    {
      "stateMutability": "payable",
      "type": "fallback",
      "payable": true
    },
    {
      "inputs": [
        {
          "internalType": "address",
          "name": "",
          "type": "address"
        }
      ],
      "name": "balances",
      "outputs": [
        {
          "internalType": "uint256",
          "name": "",
          "type": "uint256"
        }
      ],
      "stateMutability": "view",
      "type": "function",
      "constant": true
    },
    {
      "inputs": [],
      "name": "data",
      "outputs": [
        {
          "internalType": "uint256",
          "name": "",
          "type": "uint256"
        }
      ],
      "stateMutability": "view",
      "type": "function",
      "constant": true
    },
    {
      "inputs": [],
      "name": "minter",
      "outputs": [
        {
          "internalType": "address",
          "name": "",
          "type": "address"
        }
      ],
      "stateMutability": "view",
      "type": "function",
      "constant": true
    },
    {
      "inputs": [],
      "name": "nextId",
      "outputs": [
        {
          "internalType": "uint256",
          "name": "",
          "type": "uint256"
        }
      ],
      "stateMutability": "view",
      "type": "function",
      "constant": true
    },
    {
      "inputs": [],
      "name": "status",
      "outputs": [
        {
          "internalType": "string",
          "name": "",
          "type": "string"
        }
      ],
      "stateMutability": "view",
      "type": "function",
      "constant": true
    },
    {
      "inputs": [],
      "name": "value",
      "outputs": [
        {
          "internalType": "uint256",
          "name": "",
          "type": "uint256"
        }
      ],
      "stateMutability": "view",
      "type": "function",
      "constant": true
    },
    {
      "stateMutability": "payable",
      "type": "receive",
      "payable": true
    },
    {
      "inputs": [
        {
          "internalType": "uint256",
          "name": "newBalance",
          "type": "uint256"
        }
      ],
      "name": "update",
      "outputs": [],
      "stateMutability": "nonpayable",
      "type": "function"
    },
    {
      "inputs": [
        {
          "internalType": "string",
          "name": "val",
          "type": "string"
        }
      ],
      "name": "emitMyEvent",
      "outputs": [],
      "stateMutability": "nonpayable",
      "type": "function"
    },
    {
      "inputs": [
        {
          "internalType": "uint256",
          "name": "amount",
          "type": "uint256"
        }
      ],
      "name": "add",
      "outputs": [
        {
          "internalType": "bool",
          "name": "myBool",
          "type": "bool"
        },
        {
          "internalType": "string",
          "name": "myStr",
          "type": "string"
        }
      ],
      "stateMutability": "nonpayable",
      "type": "function"
    },
    {
      "inputs": [],
      "name": "getData",
      "outputs": [
        {
          "internalType": "uint256",
          "name": "",
          "type": "uint256"
        }
      ],
      "stateMutability": "view",
      "type": "function",
      "constant": true
    },
    {
      "inputs": [],
      "name": "sendEth",
      "outputs": [],
      "stateMutability": "payable",
      "type": "function",
      "payable": true
    }
  ],
  "bytecode": "0x60806040526000600155600060025534801561001a57600080fd5b50610c818061002a6000396000f3fe6080604052600436106100a05760003560e01c80633bc5de30116100645780633bc5de301461020c5780633fa4f2451461023757806361b8ce8c1461026257806373d4a13a1461028d57806382ab890a146102b8578063b414b635146102e1576100eb565b806306e99fef14610131578063075461721461013b5780631003e2d214610166578063200d2ed2146101a457806327e235e3146101cf576100eb565b366100eb576040518060400160405280600781526020017f7265636569766500000000000000000000000000000000000000000000000000815250600390816100e99190610790565b005b6040518060400160405280600881526020017f66616c6c6261636b0000000000000000000000000000000000000000000000008152506003908161012f9190610790565b005b61013961030a565b005b34801561014757600080fd5b50610150610351565b60405161015d91906108a3565b60405180910390f35b34801561017257600080fd5b5061018d600480360381019061018891906108f4565b610375565b60405161019b9291906109c1565b60405180910390f35b3480156101b057600080fd5b506101b96103d3565b6040516101c691906109f1565b60405180910390f35b3480156101db57600080fd5b506101f660048036038101906101f19190610a3f565b610461565b6040516102039190610a7b565b60405180910390f35b34801561021857600080fd5b50610221610479565b60405161022e9190610a7b565b60405180910390f35b34801561024357600080fd5b5061024c610483565b6040516102599190610a7b565b60405180910390f35b34801561026e57600080fd5b50610277610489565b6040516102849190610a7b565b60405180910390f35b34801561029957600080fd5b506102a261048f565b6040516102af9190610a7b565b60405180910390f35b3480156102c457600080fd5b506102df60048036038101906102da91906108f4565b610495565b005b3480156102ed57600080fd5b5061030860048036038101906103039190610afb565b6104dc565b005b6040518060400160405280600481526020017f73656e74000000000000000000000000000000000000000000000000000000008152506003908161034e9190610790565b50565b60008054906101000a900473ffffffffffffffffffffffffffffffffffffffff1681565b60006060826001600082825461038b9190610b77565b9250508190555060016040518060400160405280600481526020017f486579210000000000000000000000000000000000000000000000000000000081525091509150915091565b600380546103e0906105a9565b80601f016020809104026020016040519081016040528092919081815260200182805461040c906105a9565b80156104595780601f1061042e57610100808354040283529160200191610459565b820191906000526020600020905b81548152906001019060200180831161043c57829003601f168201915b505050505081565b60056020528060005260406000206000915090505481565b6000600154905090565b60025481565b60045481565b60015481565b80600560003373ffffffffffffffffffffffffffffffffffffffff1673ffffffffffffffffffffffffffffffffffffffff1681526020019081526020016000208190555050565b81816040516104ec929190610bea565b6040518091039020426004547fb471d59b9e8fe78ab0670c11fe84df6ab431139b43533ab6764e0b15b8d6c39a60405160405180910390a46004600081548092919061053790610c03565b91905055505050565b600081519050919050565b7f4e487b7100000000000000000000000000000000000000000000000000000000600052604160045260246000fd5b7f4e487b7100000000000000000000000000000000000000000000000000000000600052602260045260246000fd5b600060028204905060018216806105c157607f821691505b6020821081036105d4576105d361057a565b5b50919050565b60008190508160005260206000209050919050565b60006020601f8301049050919050565b600082821b905092915050565b60006008830261063c7fffffffffffffffffffffffffffffffffffffffffffffffffffffffffffffffff826105ff565b61064686836105ff565b95508019841693508086168417925050509392505050565b6000819050919050565b6000819050919050565b600061068d6106886106838461065e565b610668565b61065e565b9050919050565b6000819050919050565b6106a783610672565b6106bb6106b382610694565b84845461060c565b825550505050565b600090565b6106d06106c3565b6106db81848461069e565b505050565b5b818110156106ff576106f46000826106c8565b6001810190506106e1565b5050565b601f82111561074457610715816105da565b61071e846105ef565b8101602085101561072d578190505b610741610739856105ef565b8301826106e0565b50505b505050565b600082821c905092915050565b600061076760001984600802610749565b1980831691505092915050565b60006107808383610756565b9150826002028217905092915050565b61079982610540565b67ffffffffffffffff8111156107b2576107b161054b565b5b6107bc82546105a9565b6107c7828285610703565b600060209050601f8311600181146107fa57600084156107e8578287015190505b6107f28582610774565b86555061085a565b601f198416610808866105da565b60005b828110156108305784890151825560018201915060208501945060208101905061080b565b8683101561084d5784890151610849601f891682610756565b8355505b6001600288020188555050505b505050505050565b600073ffffffffffffffffffffffffffffffffffffffff82169050919050565b600061088d82610862565b9050919050565b61089d81610882565b82525050565b60006020820190506108b86000830184610894565b92915050565b600080fd5b600080fd5b6108d18161065e565b81146108dc57600080fd5b50565b6000813590506108ee816108c8565b92915050565b60006020828403121561090a576109096108be565b5b6000610918848285016108df565b91505092915050565b60008115159050919050565b61093681610921565b82525050565b600082825260208201905092915050565b60005b8381101561096b578082015181840152602081019050610950565b60008484015250505050565b6000601f19601f8301169050919050565b600061099382610540565b61099d818561093c565b93506109ad81856020860161094d565b6109b681610977565b840191505092915050565b60006040820190506109d6600083018561092d565b81810360208301526109e88184610988565b90509392505050565b60006020820190508181036000830152610a0b8184610988565b905092915050565b610a1c81610882565b8114610a2757600080fd5b50565b600081359050610a3981610a13565b92915050565b600060208284031215610a5557610a546108be565b5b6000610a6384828501610a2a565b91505092915050565b610a758161065e565b82525050565b6000602082019050610a906000830184610a6c565b92915050565b600080fd5b600080fd5b600080fd5b60008083601f840112610abb57610aba610a96565b5b8235905067ffffffffffffffff811115610ad857610ad7610a9b565b5b602083019150836001820283011115610af457610af3610aa0565b5b9250929050565b60008060208385031215610b1257610b116108be565b5b600083013567ffffffffffffffff811115610b3057610b2f6108c3565b5b610b3c85828601610aa5565b92509250509250929050565b7f4e487b7100000000000000000000000000000000000000000000000000000000600052601160045260246000fd5b6000610b828261065e565b9150610b8d8361065e565b9250828201905080821115610ba557610ba4610b48565b5b92915050565b600081905092915050565b82818337600083830152505050565b6000610bd18385610bab565b9350610bde838584610bb6565b82840190509392505050565b6000610bf7828486610bc5565b91508190509392505050565b6000610c0e8261065e565b91507fffffffffffffffffffffffffffffffffffffffffffffffffffffffffffffffff8203610c4057610c3f610b48565b5b60018201905091905056fea2646970667358221220d4dd3e3a23ef90de41694849c08814248dc2a6c56bd69a6f39a7b7db3e55421864736f6c63430008110033",
  "immutableReferences": {},
  "source": "// SPDX-License-Identifier: MIT\r\npragma solidity >=0.4.17 <0.9.0;\r\n\r\ncontract Coin {\r\n    address public minter;\r\n    uint256 public data = 0;\r\n    uint256 public value = 0;\r\n    string public status;\r\n    uint256 public nextId;\r\n    mapping(address => uint256) public balances;\r\n\r\n    event MyEvent(\r\n        uint256 indexed id,\r\n        uint256 indexed date,\r\n        string indexed value\r\n    );\r\n\r\n    function update(uint256 newBalance) public {\r\n        balances[msg.sender] = newBalance;\r\n    }\r\n\r\n    function emitMyEvent(string calldata val) public {\r\n        emit MyEvent(nextId, block.timestamp, val);\r\n        nextId++;\r\n    }\r\n\r\n    function add(uint256 amount)\r\n        public\r\n        returns (bool myBool, string memory myStr)\r\n    {\r\n        data += amount;\r\n        return (true, \"Hey!\");\r\n    }\r\n\r\n    function getData() public view returns (uint256) {\r\n        return data;\r\n    }\r\n\r\n    function sendEth() external payable {\r\n        status = \"sent\";\r\n    }\r\n\r\n    receive() external payable {\r\n        status = \"receive\";\r\n    }\r\n\r\n    fallback() external payable {\r\n        status = \"fallback\";\r\n    }\r\n}\r\n",
  "sourcePath": "C:\\Users\\Sasha\\Desktop\\React\\web3\\contracts\\Shop.sol",
  "compiler": {
    "name": "solc",
    "version": "0.8.17+commit.8df45f5f.Emscripten.clang"
  },
  "schemaVersion": "3.4.11",
  "updatedAt": "2023-01-14T13:52:22.391Z",
  "networkType": "ethereum",
  "devdoc": {
    "kind": "dev",
    "methods": {},
    "version": 1
  },
  "userdoc": {
    "kind": "user",
    "methods": {},
    "version": 1
  }
}