{
  "contractName": "Coin",
  "abi": [
    {
      "inputs": [
        {
          "internalType": "address",
          "name": "",
          "type": "address"
        }
      ],
      "name": "balances",
      "outputs": [
        {
          "internalType": "uint256",
          "name": "",
          "type": "uint256"
        }
      ],
      "stateMutability": "view",
      "type": "function",
      "constant": true
    },
    {
      "inputs": [],
      "name": "minter",
      "outputs": [
        {
          "internalType": "address",
          "name": "",
          "type": "address"
        }
      ],
      "stateMutability": "view",
      "type": "function",
      "constant": true
    },
    {
      "inputs": [
        {
          "internalType": "uint256",
          "name": "newBalance",
          "type": "uint256"
        }
      ],
      "name": "update",
      "outputs": [],
      "stateMutability": "nonpayable",
      "type": "function"
    },
    {
      "inputs": [],
      "name": "getData",
      "outputs": [
        {
          "internalType": "uint256",
          "name": "",
          "type": "uint256"
        }
      ],
      "stateMutability": "pure",
      "type": "function",
      "constant": true
    }
  ],
  "bytecode": "0x608060405234801561001057600080fd5b506102e2806100206000396000f3fe608060405234801561001057600080fd5b506004361061004c5760003560e01c8063075461721461005157806327e235e31461006f5780633bc5de301461009f57806382ab890a146100bd575b600080fd5b6100596100d9565b60405161006691906101a6565b60405180910390f35b610089600480360381019061008491906101f2565b6100fd565b6040516100969190610238565b60405180910390f35b6100a7610115565b6040516100b49190610238565b60405180910390f35b6100d760048036038101906100d2919061027f565b61011e565b005b60008054906101000a900473ffffffffffffffffffffffffffffffffffffffff1681565b60016020528060005260406000206000915090505481565b60006010905090565b80600160003373ffffffffffffffffffffffffffffffffffffffff1673ffffffffffffffffffffffffffffffffffffffff1681526020019081526020016000208190555050565b600073ffffffffffffffffffffffffffffffffffffffff82169050919050565b600061019082610165565b9050919050565b6101a081610185565b82525050565b60006020820190506101bb6000830184610197565b92915050565b600080fd5b6101cf81610185565b81146101da57600080fd5b50565b6000813590506101ec816101c6565b92915050565b600060208284031215610208576102076101c1565b5b6000610216848285016101dd565b91505092915050565b6000819050919050565b6102328161021f565b82525050565b600060208201905061024d6000830184610229565b92915050565b61025c8161021f565b811461026757600080fd5b50565b60008135905061027981610253565b92915050565b600060208284031215610295576102946101c1565b5b60006102a38482850161026a565b9150509291505056fea264697066735822122052af8dad6f5fb12e60fac3e8c7c3ed298548f55e164171ab899f25b39d7ed01564736f6c63430008110033",
  "immutableReferences": {},
  "source": "// SPDX-License-Identifier: MIT\r\npragma solidity >=0.4.17 <0.9.0;\r\n\r\ncontract Coin {\r\n  address public minter;\r\n  mapping(address => uint) public balances;\r\n\r\n  function update(uint newBalance) public {\r\n    balances[msg.sender] = newBalance;\r\n  }\r\n\r\n  function getData() public pure returns(uint) {\r\n    return 16;\r\n  }\r\n}\r\n",
  "sourcePath": "D:\\DEV\\web3\\contracts\\Shop.sol",
  "compiler": {
    "name": "solc",
    "version": "0.8.17+commit.8df45f5f.Emscripten.clang"
  },
  "schemaVersion": "3.4.11",
  "updatedAt": "2023-01-13T13:38:25.225Z",
  "networkType": "ethereum",
  "devdoc": {
    "kind": "dev",
    "methods": {},
    "version": 1
  },
  "userdoc": {
    "kind": "user",
    "methods": {},
    "version": 1
  }
}